:100000007400015C11F530B3FD11F52408015C1199
:10001000F530B2FD11F52409015C11F530B1FD1187
:10002000F52410015C11F530B0FD11F52411015CCF
:1000300011F530B3FD11F52412015C11F530B2FD5C
:1000400011F52413015C11F530B1FD11F5241401F3
:100050005C11F530B0FD11F52415015CF59075B01B
:100060007F30B33930B24130B14930B05175B0BF93
:1000700030B35630B25E30B16630B06E75B0DF303E
:10008000B38230B28A30B19230B09A75B0EF30B3EB
:100090009F30B2A730B1AF30B0B7D4015C11F530AA
:1000A000B3FD11F57400015C11F530B2FD11F524BA
:1000B00001015C11F530B1FD11F52402015C11F56F
:1000C00030B0FD11F52403015C11F530B3FD11F5DD
:1000D0002404015C11F530B2FD11F52405015C1119
:1000E000F530B1FD11F52406015C11F530B0FD11BC
:0E00F000F52407015C7E967FFADFFEDEFA2221
:00000001FF
