:100000001112114290007F11351147900084113573
:10001000011011687426114C7426114C7426114C71
:100020007426114C7408114C7401114C7406114C57
:10003000740C114C227F00EF93B4100122115A0F5F
:1000400001377488114C2274C8114C2275B01F00FE
:10005000D2B5F59000C2B511732275B09F00D2B52C
:10006000F59000C2B5117A227E647FC8DFFEDEFA09
:10007000227E147FC8DFFEDEFA227E50DEFE22459D
:0A008000453032104A455252591023
:00000001FF
