:02000000013DC0
:10000B00758C3C758AB0DA0A7A1430A0062401D4B8
:10001B00F59032B23430340C1176F87590FF117FB5
:10002B001176013C30A0FDF9E8D4F590117FE91170
:10003B0076227400F5907A14758901758C3C758A5B
:10004B00B0D2AFD2A9D234117630A1FD117620A156
:10005B00FDD28C117630A1FD117620A1FDC28C1141
:10006B007630A1FD117620A1FD013D7B647CC8DCBF
:10007B00FEDBFA227D057EFA7FC8DFFEDEFADDF6B7
:01008B002252
:00000001FF
