:100000001115114574821138114A90008F113878FA
:1000100010119A0113116B7438114F7438114F7409
:1000200038114F7438114F7408114F7401114F7407
:1000300006114F740C114F227F00EF93B410012270
:10004000115D0F013A7480114F2274C0114F227557
:10005000B01F00D2B5F59000C2B511762275B09FE1
:1000600000D2B5F59000C2B5117D227E647FC8DF55
:10007000FEDEFA227E147FC8DFFEDEFA227E50DE2C
:10008000FE22454142434544464446534748104AB0
:0A009000455252594A455252591088
:00000001FF
