:10000000C3E4014A4006790511B9503E745029D421
:10001000F5904006790611B95030746029D4F590F6
:100020004006790711B95022747029D4F590400622
:10003000790811B95014748029D4F59040067909D3
:1000400011B95006749029D4F59075B07F30B32360
:1000500030B22E30B13930B04475B0BF30B34C300F
:10006000B2A230B1AD30B0B875B0DF30B3C030B28D
:10007000CB014A4006790011B950CF740029D4F55C
:10008000904006790111B950C1741029D4F59040FF
:1000900006790211B950B3742029D4F5904006793D
:1000A0000311B950A5743029D4F590400679041194
:1000B000B95097744029D4F590758901758CF07505
:0C00C0008A60D28C208D0201C4C28D2207
:00000001FF
